:020000040800F2
:1000000000500020891A0008711900087D190008A5
:1000100083190008891900088F19000800000000E2
:10002000000000000000000000000000B1610008B6
:10003000951900080000000081630008C9630008EA
:10004000D11A0008D11A0008D11A0008D11A0008E4
:10005000D11A0008D11A0008D11A0008D11A0008D4
:10006000D11A0008D11A0008D11A0008D11A0008C4
:10007000D11A0008D11A0008D11A0008D11A0008B4
:10008000D11A0008D11A0008D11A0008D11A0008A4
:10009000D11A0008D11A0008D11A0008D11A000894
:1000A000D11A0008D11A0008D11A0008D11A000884
:1000B000A1190008B5190008D11A0008D11A0008C2
:1000C000D11A0008D11A0008D11A0008D11A000864
:1000D000D11A0008D11A0008D11A0008D11A000854
:1000E000D11A0008D11A0008D11A00080000000037
:1000F0000000000000000000000000000000000000
:0C01000000000000000000005FF808F1A3
:1001100010B5054C237833B9044B13B10448AFF341
:1001200000800123237010BD10010020000000009A
:100130008070000808B5034B1BB103490348AFF3B7
:10014000008008BD0000000014010020807000083D
:1001500080B586B000AF0346FB710B46BB711346FA
:100160007B71FB799AB2BB799BB213449AB27B79CB
:100170009BB213449BB203F20513FB82FB8A5B42E2
:10018000FB827E233B73FF237B730623BB73FB79C8
:10019000FB7300233B74BB797B747B79BB74FB8A54
:1001A0001B0A9BB2DBB2FB74FB8ADBB23B75EF230D
:1001B0007B7507F10C014FF0FF330A22034804F06E
:1001C000EEF900BF1837BD4680BD00BF28220020D1
:1001D00080B582B000AF0346FB71022200213F20B0
:1001E000FFF7B6FFC82001F0A7FCFB791A460021F3
:1001F0000620FFF7ADFF4FF4FA7001F09DFC00BF41
:100200000837BD4680BD000080B485B000AFF860FF
:10021000B9607A60FB68064A1A60BB68054A1A60D2
:100220007B6880221A6000BF1437BD4680BC7047CF
:100230002C0100208001002080B500AF00224FF487
:1002400000710A4802F043FB01224FF40071074895
:1002500002F03DFB00224FF40071044802F037FB2E
:10026000012001F069FC00BF80BD00BF0008014013
:1002700080B582B000AF0346FB71FB7903F0010348
:10028000DBB21A464FF48051164802F020FBFB798E
:100290005B10DBB203F00103DBB21A464FF40051EE
:1002A000104802F014FBFB799B10DBB203F0010352
:1002B000DBB21A464FF480410A4802F008FBFB7992
:1002C000DB10DBB203F00103DBB21A464FF400414E
:1002D000044802F0FCFAFFF7AFFF00BF0837BD4645
:1002E00080BD00BF000C014080B582B000AF034666
:1002F000FB7100224FF48071084802F0E8FAFB79A4
:100300001B09DBB21846FFF7B3FFFB791846FFF76E
:10031000AFFF00BF0837BD4680BD00BF00080140E9
:1003200080B582B000AF0346FB7101224FF48071AB
:10033000084802F0CCFAFB791B09DBB21846FFF73C
:1003400097FFFB791846FFF793FF00BF0837BD46BC
:1003500080BD00BF0008014080B500AF0120FFF75D
:10036000C3FF052001F0E8FB00BF80BD80B582B06F
:1003700000AF786007E07B681B781846FFF7D0FF76
:100380007B6801337B607B681B78002BF3D100BF57
:100390000837BD4680BD000080B500AF00224FF495
:1003A0000071274802F093FA00224FF4807124482C
:1003B00002F08DFA322001F0BFFB224B08221A70A6
:1003C0000320FFF755FF052001F0B6FB0320FFF7E0
:1003D0004FFF052001F0B0FB0320FFF749FF02208B
:1003E00001F0AAFB0220FFF743FF022001F0A4FB6B
:1003F000144B1B7843F02003DBB21846FFF774FF61
:10040000104B04221A700F4B1B7843F00803DBB229
:100410001846FFF769FF022001F08EFBFFF79CFFF3
:10042000084B02221A70074B1B7843F00403DBB21F
:100430001846FFF759FF022001F07EFB00BF80BD88
:1004400000080140E820002080B584B000AF0346DA
:100450000A46FB711346BB710023FB73BB79012B6A
:1004600002D14023FB7301E00023FB73FA7BFB798D
:100470001344DBB25BB263F07F035BB2DBB21846BE
:10048000FFF732FF00BF1037BD4680BD80B582B098
:1004900000AF00237B600C4801F048FC64210A484F
:1004A00001F01EFD084801F021FE7860064801F0C9
:1004B000EBFC7B68054AA2FB0323DB08FB70FB789F
:1004C00018460837BD4680BDE8210020CDCCCCCCF5
:1004D00080B582B000AF03463960FB71FB79032B16
:1004E0006ED801A252F823F0F90400082B05000889
:1004F0005D0500088F0500080021002001F06CF860
:10050000324A012306CA324801F040F82421002073
:1005100001F062F82D4A012306CA386801F036F866
:1005200078212C4800F018FF4BE00021002001F05A
:1005300053F8264A012306CA274801F027F8242148
:10054000002001F049F8214A012306CA386801F069
:100550001DF87A211F4800F0FFFE32E00021002044
:1005600001F03AF8194A012306CA1C4801F00EF8B6
:100570002421002001F030F8144A012306CA38680B
:1005800001F004F87821164800F0E6FE19E0002199
:10059000002001F021F80D4A012306CA114800F09D
:1005A000F5FF2421002001F017F8084A012306CAAC
:1005B000386800F0EBFF7A21094800F0CDFE00E03A
:1005C00000BF00BF0837BD4680BD00BF000000204F
:1005D000B4700008F4200020C0700008CC7000083F
:1005E00048210020DC70000880B584B000AF3D4B8E
:1005F0001B68184604F05CFF3B4BFB60FFF7ACFE4A
:1006000000210020FFF720FFF868FFF7AFFE374B0F
:1006100005221A70364B02221A7009E00121354872
:1006200002F03EF90346002B02D0314B00221A7033
:100630002F4B1B78022BF1D02D4B1B78002B1BD09E
:10064000FFF78AFE2C4BFB60F868FFF78FFE274B05
:1006500005221A70264B02221A7009E00121254852
:1006600002F01EF90346002B02D0214B00221A7023
:100670001F4B1B78022BF1D0FFF76EFE1F48FFF7D0
:1006800075FE01210A20FFF7DFFE1D48FFF76EFE11
:1006900012E001210020FFF7D7FEFFF7F7FE034627
:1006A0001A463B1D1749184606F0E2F800237B72F4
:1006B0003B1D1846FFF75AFE01210E4802F0F0F8E4
:1006C0000346002BE5D0FFF7E1FE03461A46074B31
:1006D0001A70044B1B68184604F0B6FF00BF1037B1
:1006E000BD4680BD9C210020EC70000888000020E1
:1006F00080030020000C01400C7100081C710008F0
:100700002C7100083471000880B582B000AF434BF3
:100710001B68184604F0CCFE00237B60404BFF2290
:100720001A70404B00221A700023FB700EE0FB7819
:100730003D4A52F823307A689A4204D9FB783A4A03
:1007400052F823307B60FB780133FB70FB78032B7E
:10075000EDD9FFF701FE7B68002B2CD03348FFF763
:1007600005FE01210020FFF76FFE0023BB701EE095
:10077000BB782D4A52F823307A689A420FD1BB7861
:100780002B491846FFF7A4FEBB782A4A52F82330BB
:100790001846FFF7EBFD2848FFF7E8FD04E0BB78BB
:1007A00026491846FFF794FEBB780133BB70BB782F
:1007B000032BDDD910E000237B7007E07B781F4915
:1007C0001846FFF785FE7B7801337B707B78032B1F
:1007D000F4D91B48FFF7CAFD114B0F221A70114BB9
:1007E00002221A700CE00121164802F059F8034663
:1007F000002B05D00B4B00221A70094BFF221A70F8
:10080000084B1B78022BEED0044B1B68184604F0F3
:100810001BFF00BF0837BD4680BD00BF6C22002013
:100820008800002080030020182200203871000872
:10083000407100088C000020487100084C710008CD
:1008400058710008000C0140B0B5A0B000AF01F035
:1008500041F900F0F3F800F053FA00F07DF900F0F0
:10086000A9F900F023FA00F039F900F0D1F9654850
:1008700001F05CFA0A20FFF7ABFCFFF78DFD782151
:10088000614800F0EBFB0346002B01D000F0C5FBF4
:100890007A215D4800F0E2FB0346002B01D000F016
:1008A000BCFB7821594800F0D9FB0346002B01D04E
:1008B00000F0B3FB7A21554800F0D0FB0346002B33
:1008C00001D000F0AAFB4FF47A7001F035F9002056
:1008D00000F020FD78214C4800F03EFD002000F0A3
:1008E00019FD7A21484800F037FD002000F012FD84
:1008F0007821464800F030FD002000F00BFD7A2101
:10090000424800F029FD4FF47A7001F015F90023F8
:10091000BB670023FB6707F178030121184604F049
:1009200027F802463A4B1A6000233B6700237B6797
:1009300007F170030121184604F01AF80246354BFE
:100940001A600023BB660023FB6607F168030121E0
:10095000184604F00DF802462F4B1A6000233B6640
:1009600000237B6607F160030121184604F000F8BC
:1009700002462A4B1A600023BB650023FB6507F182
:1009800058030121184603F0F3FF0246244B1A6076
:10099000244B07F13C041D460FCD0FC495E807001A
:1009A00084E8070007F13C030021184603F080FFAC
:1009B00002461D4B1A601D4B07F120041D460FCD4A
:1009C0000FC495E8070084E8070007F12003002121
:1009D000184603F06DFF0246154B1A60154B3C1D7F
:1009E0001D460FCD0FC495E8070084E807003B1DA6
:1009F0000021184603F05CFF02460F4B1A6003F01B
:100A000050FFFEE7E8210020F420002048210020CC
:100A1000EC20002078220020F0200020742200200A
:100A200080220020687100086C220020907100086C
:100A300070220020B87100089C21002080B594B07D
:100A400000AF07F1280328220021184605F007FF10
:100A500007F1140300221A605A609A60DA601A6182
:100A60003B1D00221A605A609A60DA600223BB6262
:100A70000123BB631023FB6300237B6407F128037E
:100A8000184602F08BFB0346002B01D000F0C5FA9C
:100A90000F237B610023BB610023FB6100233B62CA
:100AA00000237B6207F114030021184602F0F6FDD3
:100AB0000346002B01D000F0B0FA02237B60002334
:100AC000FB603B1D184602F0B5FF0346002B01D02A
:100AD00000F0A3FA00BF5037BD4680BD80B584B09A
:100AE00000AF3B1D00221A605A609A60184B194AE9
:100AF0001A60174B00229A60154B01221A73144B8F
:100B000000221A75124B4FF46022DA61104B00225A
:100B10005A600F4B01221A610D4801F02FF803466D
:100B2000002B01D000F079FA07237B600123BB6022
:100B30000023FB603B1D1946054801F0E3FA03461C
:100B4000002B01D000F069FA00BF1037BD4680BD10
:100B5000E82100200024014080B500AF124B134A69
:100B60001A60114B124A5A600F4B00229A600E4BCA
:100B70000022DA600C4B4FF480421A610A4B0022CB
:100B80005A61094B00229A61074B0022DA61064B39
:100B900000221A62044801F0B3FE0346002B01D084
:100BA00000F03BFA00BF80BDF4200020005400405C
:100BB000801A060080B500AF124B134A1A60114B21
:100BC000124A5A600F4B00229A600E4B0022DA60E4
:100BD0000C4B4FF480421A610A4B00225A61094BB8
:100BE00000229A61074B0022DA61064B00221A624A
:100BF000044801F085FE0346002B01D000F00DFAF9
:100C000000BF80BD4821002000580040801A060027
:100C100080B586B000AF07F1080300221A605A6061
:100C20009A60DA603B4600221A605A601D4B1E4AE9
:100C30001A601C4B47225A601A4B00229A60194BCB
:100C40004FF6FE72DA60174B00221A61154B002234
:100C50009A61144803F060F80346002B01D000F0BD
:100C6000DCF94FF48053BB6007F1080319460D48C7
:100C700003F0FCF90346002B01D000F0CEF900236D
:100C80003B6000237B603B461946064803F0C2FBED
:100C90000346002B01D000F0C0F900BF1837BD4655
:100CA00080BD00BFA02100200004004080B500AF3F
:100CB000114B124A1A60104B4FF416525A600E4BE9
:100CC00000229A600C4B0022DA600B4B00221A6162
:100CD000094B08225A61084B00229A61064B0022F8
:100CE000DA61054803F006FC0346002B01D000F052
:100CF00094F900BF80BD00BF2822002000380140C9
:100D000080B588B000AF07F1100300221A605A6066
:100D10009A60DA604D4B9B694C4A43F01003936133
:100D20004A4B9B6903F01003FB60FB68474B9B69D0
:100D3000464A43F020039361444B9B6903F0200330
:100D4000BB60BB68414B9B69404A43F0040393611D
:100D50003E4B9B6903F004037B607B683B4B9B69C4
:100D60003A4A43F008039361384B9B6903F0080348
:100D70003B603B68002248F27831354801F0A7FD1E
:100D800000224FF47041334801F0A1FD4FF460435D
:100D90003B6100237B610223BB6107F1100319460D
:100DA0002D4801F023FC41F607433B6100237B61A2
:100DB0000223BB6107F110031946254801F016FC18
:100DC00048F278333B6101237B610023BB6102233E
:100DD000FB6107F1100319461D4801F007FC812350
:100DE0003B6100237B610023BB6107F110031946BF
:100DF000184801F0FBFB02233B61184B7B61002389
:100E0000BB6107F110031946124801F0EFFB4FF4E4
:100E100070433B6101237B610023BB610223FB61C3
:100E200007F1100319460B4801F0E0FB38233B6142
:100E300000237B610223BB6107F1100319460548BB
:100E400001F0D4FB00BF2037BD4680BD001002403A
:100E500000080140000C014000100140000011108A
:100E600080B584B000AF7860FFF7BEFB114B1B78F4
:100E7000002B1AD001210020FFF7E6FA0E48FFF7F9
:100E800075FA01210020FFF7DFFA0A4B1B781A469A
:100E900007F108030949184605F0EAFC00237B73B3
:100EA00007F108031846FFF761FA4FF4C87003F022
:100EB0004BFDDBE788000020D47100083471000886
:100EC00080B582B000AF7860012003F03DFDFBE704
:100ED00080B586B000AF786000237B753E4B1B78F1
:100EE000002B75D00023FB756FE0002278213B4872
:100EF00001F0EDFCFB7D3A4A32F81330012219462D
:100F0000364801F0E4FC052000F016FE0023BB7516
:100F100050E0BB7D334A52F83300BB7D314ADB00E1
:100F200013449B88194601F0BBFC03467B757B7D0F
:100F3000002B3CD0FB7D2C4A52F82320BB7D2B4953
:100F4000CB5C1946FB7D0A44274941F82320BB7D31
:100F5000264AD35C002B0CD0254B1B780133DAB228
:100F6000234B1A70224B1B780C2B02D9FFF7CCFBBA
:100F700023E0BB7D1D4A0021D1541E4B1B78012B61
:100F800002D1FFF7C1FB18E0FB7D174A52F823207E
:100F900007F10C031849184605F06AFC00237B741E
:100FA00007F10C02FB7D11461846FFF791FABB7D55
:100FB0000133BB75BB7D0C2BABD9002278210748D0
:100FC00001F085FCFB7D0133FB75FB7D032B8CD988
:100FD000C82003F0B9FC81E7880000200008014028
:100FE000800000200800002018220020700000204F
:100FF0007C220020800300203471000880B582B07C
:1010000000AF78607B681B68B3F1804F01D100F0BE
:1010100077FD00BF0837BD4680BD80B400AF00BF7C
:10102000BD4680BC704780B586B004AF78600B4683
:10103000FB701346BB70BB7899B20A23029301235D
:101040000193FB1C009301230022786801F090FDBE
:10105000034618460837BD4680BD000080B584B001
:1010600000AF78600B46FB70642000F065FD002344
:10107000FB60FB781A46AE217868FFF7D4FF034681
:101080001A46FB681344FB60FB781A4620217868F7
:10109000FFF7C9FF03461A46FB681344FB60FB7861
:1010A0001A4610217868FFF7BEFF03461A46FB6810
:1010B0001344FB60FB781A46B0217868FFF7B3FF52
:1010C00003461A46FB681344FB60FB781A46C821A6
:1010D0007868FFF7A8FF03461A46FB681344FB60D5
:1010E000FB781A4600217868FFF79DFF03461A46F1
:1010F000FB681344FB60FB781A4610217868FFF701
:1011000092FF03461A46FB681344FB60FB781A46BD
:1011100040217868FFF787FF03461A46FB681344AF
:10112000FB60FB781A4681217868FFF77CFF034655
:101130001A46FB681344FB60FB781A46FF21786867
:10114000FFF771FF03461A46FB681344FB60FB7808
:101150001A46A1217868FFF766FF03461A46FB6826
:101160001344FB60FB781A46A6217868FFF75BFF03
:1011700003461A46FB681344FB60FB781A46A82115
:101180007868FFF750FF03461A46FB681344FB607C
:10119000FB781A463F217868FFF745FF03461A4659
:1011A000FB681344FB60FB781A46A4217868FFF7BC
:1011B0003AFF03461A46FB681344FB60FB781A4665
:1011C000D3217868FFF72FFF03461A46FB681344C4
:1011D000FB60FB781A4600217868FFF724FF03467E
:1011E0001A46FB681344FB60FB781A46D5217868E1
:1011F000FFF719FF03461A46FB681344FB60FB78B0
:101200001A46F0217868FFF70EFF03461A46FB687E
:101210001344FB60FB781A46D9217868FFF703FF77
:1012200003461A46FB681344FB60FB781A462221EA
:101230007868FFF7F8FE03461A46FB681344FB6024
:10124000FB781A46DA217868FFF7EDFE03461A4666
:10125000FB681344FB60FB781A4612217868FFF79D
:10126000E2FE03461A46FB681344FB60FB781A460D
:10127000DB217868FFF7D7FE03461A46FB68134464
:10128000FB60FB781A4620217868FFF7CCFE034606
:101290001A46FB681344FB60FB781A468D21786878
:1012A000FFF7C1FE03461A46FB681344FB60FB7858
:1012B0001A4614217868FFF7B6FE03461A46FB6803
:1012C0001344FB60FB781A46AF217868FFF7ABFE4A
:1012D00003461A46FB681344FB60FB68002B01D0F1
:1012E000012311E0002000F015F8FB78194678681A
:1012F00000F032F8064B00221A80054B00225A807B
:10130000034B01225A71002318461037BD4680BD99
:101310008407002080B485B000AF0346FB71002332
:10132000FB600DE0FB79002B01D1002100E0FF21E3
:10133000084AFB6813440A461A70FB680133FB60D5
:10134000FB68B3F5806FEDD300BF1437BD4680BC9A
:10135000704700BF8403002080B588B004AF786078
:101360000B46FB700023FB7326E0FB7B503BDBB29C
:10137000FA7819467868FFF756FEFB781A4600217E
:101380007868FFF750FEFB781A4610217868FFF75F
:101390004AFEFB7899B2FB7BDB010B4A13446422C3
:1013A000029280220192009301234022786801F08A
:1013B000DFFBFB7B0133FB73FB7B072BD5D900BF26
:1013C0001037BD4680BD00BF8403002080B483B0C9
:1013D00000AF0346FB710B46BB7113467B7197F957
:1013E0000730002B48DBBB793F2B45D8254B1B79B9
:1013F000002B06D07B79002B0CBF01230023DBB22E
:101400007B717B79012B1AD1FA79BB79DB08D8B2D1
:101410000346DB0113441C4AD35C5AB2BB7903F088
:101420000703012101FA03F35BB2134359B2FA79BE
:101430000346DB011344C9B2134AD1541DE0FA79C3
:10144000BB79DB08D8B20346DB0113440E4AD35CF8
:101450005AB2BB7903F00703012101FA03F35BB22F
:10146000DB435BB2134059B2FA790346DB01134404
:10147000C9B2054AD15400E000BF0C37BD4680BC5C
:10148000704700BF840700208403002090B589B016
:1014900000AF0446381D80E806001A462346FB7359
:1014A0001346BB73384B1B881A463B7913447F2B7A
:1014B00006DC354B5B881A467B7913443F2B01DDF4
:1014C00000235DE00023FB614CE0BA68FB7B203B1E
:1014D000797901FB03F31946FB690B445B00134464
:1014E0001B887B610023BB6134E07A69BB6902FA27
:1014F00003F303F40043002B12D0234B1B88DAB212
:10150000BB69DBB21344D8B21F4B5B88DAB2FB690C
:10151000DBB21344DBB2BA7B1946FFF757FF16E084
:10152000194B1B88DAB2BB69DBB21344D8B2164B35
:101530005B88DAB2FB69DBB21344D9B2BB7B002B08
:101540000CBF01230023DBB21A46FFF73FFFBB6944
:101550000133BB613B791A46BB699342C5D3FB6932
:101560000133FB617B791A46FB699342ADD3064B8D
:101570001A883B799BB213449AB2034B1A80FB7BC7
:1015800018462437BD4690BD8407002080B584B03E
:1015900000AFF860381D80E80600FB7012E0FB68C1
:1015A0001878FB783A1D06CAFFF770FF03461A4603
:1015B000FB681B789A4202D0FB681B7808E0FB6846
:1015C0000133FB60FB681B78002BE8D1FB681B78BC
:1015D00018461037BD4680BD80B483B000AF0346C7
:1015E0000A46FB711346BB71FB799AB2054B1A8010
:1015F000BB799AB2034B5A8000BF0C37BD4680BC02
:10160000704700BF8407002080B485B000AF154B41
:101610009B69144A43F001039361124B9B6903F0E9
:101620000103BB60BB680F4BDB690E4A43F080537C
:10163000D3610C4BDB6903F080537B607B680A4B02
:101640005B68FB60FB6823F0E063FB60FB6843F0D2
:101650000073FB60044AFB68536000BF1437BD464B
:1016600080BC7047001002400000014080B588B087
:1016700000AF786007F1100300221A605A609A6088
:10168000DA607B681B68144A934221D1134B9B6933
:10169000124A43F400739361104B9B6903F4007387
:1016A000FB60FB680D4B9B690C4A43F0040393619C
:1016B0000A4B9B6903F00403BB60BB6880233B615A
:1016C00003237B6107F110031946054800F08EFFE4
:1016D00000BF2037BD4680BD0024014000100240FD
:1016E0000008014080B58CB000AF786007F11C03A2
:1016F00000221A605A609A60DA607B681B68324A7E
:10170000934233D1314B9B69304A43F008039361D4
:101710002E4B9B6903F00803BB61BB694FF4407318
:10172000FB6112233B620323BB6207F11C031946D2
:10173000274800F05BFF274B5B68FB62FB6A43F0C6
:10174000E063FB62FB6A43F00203FB62214AFB6A2F
:1017500053601E4BDB691D4A43F40013D3611B4BDE
:10176000DB6903F400137B617B6929E07B681B68FC
:10177000194A934224D1154B9B69144A43F008033C
:101780009361124B9B6903F008033B613B694FF483
:101790004063FB6112233B620323BB6207F11C031E
:1017A00019460B4800F022FF084BDB69074A43F457
:1017B0008003D361054BDB6903F48003FB60FB68A6
:1017C00000BF3037BD4680BD0054004000100240CD
:1017D000000C0140000001400058004080B584B07A
:1017E00000AF78607B681B680D4A934213D10D4BA4
:1017F000DB690C4A43F00203D3610A4BDB6903F057
:101800000203FB60FB68002200211D2000F0C3FEE4
:101810001D2000F0DCFE00BF1037BD4680BD00BFBC
:10182000000400400010024080B58AB000AF78602C
:1018300007F1140300221A605A609A60DA607B682C
:101840001B681C4A934231D11B4B9B691A4A43F4D3
:1018500080439361184B9B6903F480433B613B6970
:10186000154B9B69144A43F008039361124B9B6923
:1018700003F00803FB60FB6840237B611223BB611C
:1018800003233B6207F1140319460C4800F0AEFE37
:101890000B4B5B687B627B6A43F0E0637B627B6A35
:1018A00043F004037B62064A7B6A536000BF28371B
:1018B000BD4680BD0038014000100240000C0140D0
:1018C0000000014080B58CB000AF78600023FB625F
:1018D0000023BB62002279681C2000F05CFE1C2003
:1018E00000F075FE1F4BDB691E4A43F00103D36114
:1018F0001C4BDB6903F00103FB60FB6807F110027E
:1019000007F114031146184602F046F802F01CF8DD
:10191000F862FB6A144AA2FB03239B0C013BBB62E7
:10192000124B4FF080421A60104B40F2E732DA60FF
:101930000E4ABB6A53600D4B00221A610B4B00220A
:101940009A600A4802F0E8F90346002B04D10748E0
:1019500002F032FA034600E0012318463037BD4654
:1019600080BD00BF0010024083DE1B4384220020A4
:1019700080B400AF00BFBD4680BC704780B400AFEC
:10198000FEE780B400AFFEE780B400AFFEE780B4AE
:1019900000AFFEE780B400AF00BFBD4680BC70471B
:1019A00080B500AF024802F059FA00BF80BD00BF09
:1019B0008422002080B500AF124B1B78002B0DD085
:1019C000114B1B78002B09D00E4B1B78013BDAB270
:1019D0000C4B1A700C4B02221A700DE0094B1B784D
:1019E000002B06D1084B01221A70064BFF221A70F9
:1019F00002E0044BFF221A70044802F02FFA00BFE5
:101A000080BD00BF8800002080030020A0210020AE
:101A100080B586B000AF7860144A154BD31A7B614D
:101A20007B693B61134B1B68002B02D1114B124A9F
:101A30001A60104B1A687B6813443A699A4207D2BD
:101A400004F0D8FE02460C2313604FF0FF3309E088
:101A5000084B1B68FB60074B1A687B681344054AF8
:101A60001360FB6818461837BD4680BD0050002043
:101A7000000400008C070020D822002080B400AFB2
:101A800000BFBD4680BC70470C480D490D4A00237D
:101A900002E0D458C4500433C4188C42F9D30A4A23
:101AA0000A4C002301E013600432A242FBD3FFF78B
:101AB000E5FF04F0A5FEFEF7C7FE7047000000201A
:101AC00010010020C87F000810010020D42200204F
:101AD000FEE7000080B500AF084B1B68074A43F0E3
:101AE00010031360032000F04BFD0020FFF7EAFE17
:101AF000FFF78AFD0023184680BD00BF002002408A
:101B000080B400AF054B1B781A46054B1B68134485
:101B1000034A136000BFBD4680BC7047A40000208C
:101B2000CC22002080B400AF024B1B681846BD4693
:101B300080BC7047CC22002080B584B000AF7860B4
:101B4000FFF7F0FFB8607B68FB60FB68B3F1FF3F15
:101B500005D0094B1B781A46FB681344FB6000BF95
:101B6000FFF7E0FF0246BB68D31AFA689A42F7D83B
:101B700000BF1037BD4680BDA400002080B586B0F0
:101B800000AF78600023FB7500233B610023BB603E
:101B90000023FB607B68002B01D10123BEE07B6842
:101BA0009B68002B7B689B6A002B09D17B68002215
:101BB000DA627B68002283F824207868FFF756FDFC
:101BC000786800F0F1FB0346FB757B689B6A03F0C5
:101BD0001003002B40F09980FB7D002B40F0958096
:101BE0007B689B6A23F4885323F0020343F00202CC
:101BF0007B689A627B685A687B68DB691A437B68FA
:101C00001B7B5B001343BA681343BB607B689B6814
:101C1000B3F5807F03D07B689B68012B02D14FF422
:101C2000807300E000233A6913433B617B681B7DAE
:101C3000012B19D17B681B7B002B09D17B689B6929
:101C4000013B5A033B69134343F400633B610BE0E0
:101C50007B689B6A43F020027B689A627B68DB6A40
:101C600043F001027B68DA627B681B685B6823F4DF
:101C700069417B681B683A690A435A607B681B6844
:101C80009A68284B13407A681268B9680B439360CE
:101C90007B689B68B3F5807F03D07B689B68012BD2
:101CA00004D17B681B69013B1B05FB607B681B68DB
:101CB000DB6A23F470017B681B68FA680A43DA6206
:101CC0007B681B689A68184B1340BA689A420BD11C
:101CD0007B680022DA627B689B6A23F0030343F08F
:101CE00001027B689A6218E07B689B6A23F012030A
:101CF00043F010027B689A627B68DB6A43F0010262
:101D00007B68DA620123FB7507E07B689B6A43F01E
:101D100010027B689A620123FB75FB7D1846183719
:101D2000BD4680BDFDF7E1FFFE0E1FFF80B584B00C
:101D300000AF78600023FB737B6893F82430012B9D
:101D400001D1022398E07B68012283F8242078687F
:101D500000F0D0FA0346FB73FB7B002B40F087803A
:101D60007B689B6A23F4407323F0010343F4807281
:101D70007B689A627B681B68414A934205D1414B5C
:101D80005B6803F47023002B15D17B689B6A23F4F6
:101D900080127B689A627B681B685B6803F48063CF
:101DA000002B26D07B689B6A23F4405343F4805277
:101DB0007B689A621DE07B689B6A43F480127B68B3
:101DC0009A627B681B682F4A934204D07B681B6829
:101DD0002B4A93420DD12B4B5B6803F48063002B9D
:101DE00007D07B689B6A23F4405343F480527B689E
:101DF0009A627B689B6A03F48053002B06D07B6851
:101E0000DB6A23F006027B68DA6202E07B6800226C
:101E1000DA627B68002283F824207B681B686FF0FD
:101E200002021A607B681B689B6803F46023B3F5A9
:101E3000602F13D17B681B68114A934205D1114B67
:101E40005B6803F47023002B08D17B681B689A68D9
:101E50007B681B6842F4A0029A600CE07B681B68F8
:101E60009A687B681B6842F480129A6003E07B6882
:101E7000002283F82420FB7B18461037BD4680BD26
:101E8000002801400024014080B584B000AF786094
:101E90000023FB737B6893F82430012B01D10223CC
:101EA0001AE07B68012283F82420786800F07CFA2D
:101EB0000346FB73FB7B002B09D17B689B6A23F4F1
:101EC000885323F0010343F001027B689A627B6828
:101ED000002283F82420FB7B18461037BD4680BDC6
:101EE00090B587B000AF7860396000237B61002334
:101EF000FB6000233B61FFF715FE78617B681B6880
:101F00009B6803F48073002B0BD07B689B6A43F0C3
:101F100020027B689A627B68002283F824200123D8
:101F2000D3E07B681B685B6803F48073002B31D1BE
:101F30007B681B68DB6A03F47003002B2AD121E065
:101F40003B68B3F1FF3F1DD03B68002B07D0FFF784
:101F5000E9FD02467B69D31A3A689A4212D27B683D
:101F60001B681B6803F00203002B0BD17B689B6A84
:101F700043F004027B689A627B68002283F8242085
:101F80000323A2E07B681B681B6803F00203002B9D
:101F9000D6D070E04F4B1C68022001F001FE0346D2
:101FA000B4FBF3F27B681B6819694B4B0B40002BA9
:101FB00018D17B681B68D968484B0B40002B11D1A6
:101FC0007B681B681969464B0B40002B08D17B6866
:101FD0001B68D968434B0B40002B01D1142320E030
:101FE00029231EE07B681B6819693D4B0B40002BC1
:101FF00006D17B681B68D9683A4B0B40002B0DD08B
:102000007B681B681969384B0B40002B08D17B6833
:102010001B68D968344B0B40002B01D1542300E0DE
:10202000FC2302FB03F33B6121E03B68B3F1FF3F7C
:102030001AD03B68002B07D0FFF774FD02467B697E
:10204000D31A3A689A420FD2FB683A699A420BD97E
:102050007B689B6A43F004027B689A627B6800227B
:1020600083F82420032330E0FB680133FB60FB6826
:102070003A699A42D9D87B681B686FF012021A60DD
:102080007B689B6A43F400727B689A627B681B687A
:102090009B6803F46023B3F5602F15D17B681B7B2D
:1020A000002B11D17B689B6A23F480727B689A6253
:1020B0007B689B6A03F48053002B05D17B689B6A85
:1020C00043F001027B689A62002318461C37BD4624
:1020D00090BD00BF9C000020244992242449920016
:1020E00092244912922449004992240080B483B07A
:1020F00000AF78607B681B68DB6C18460C37BD4608
:1021000080BC704780B485B000AF78603960002330
:10211000FB730023BB607B6893F82430012B01D153
:102120000223DCE07B68012283F824203B685B68A3
:10213000062B1CD87B681B68596B3B685A68134692
:102140009B001344053B1F2202FA03F3DB431940B3
:102150003B6818683B685A6813469B001344053B6C
:1021600000FA03F27B681B680A435A633CE03B6851
:102170005B680C2B1CD87B681B68196B3B685A6822
:1021800013469B001344233B1F2202FA03F3DB4355
:1021900019403B6818683B685A6813469B00134413
:1021A000233B00FA03F27B681B680A431A631BE0B7
:1021B0007B681B68D96A3B685A6813469B001344C6
:1021C000413B1F2202FA03F3DB4319403B681868C6
:1021D0003B685A6813469B001344413B00FA03F2E4
:1021E0007B681B680A43DA623B681B68092B1CD9B1
:1021F0007B681B68D9683B681A6813465B00134408
:102200001E3B072202FA03F3DB4319403B68986840
:102210003B681A6813465B0013441E3B00FA03F246
:102220007B681B680A43DA6019E07B681B681969E0
:102230003B681A6813465B001344072202FA03F353
:10224000DB4319403B6898683B681A6813465B009B
:10225000134400FA03F27B681B680A431A613B6867
:102260001B68102B03D03B681B68112B32D17B6895
:102270001B681D4A934225D17B681B689B6803F449
:102280000003002B26D17B681B689A687B681B685B
:1022900042F400029A603B681B68102B1AD1134B62
:1022A0001B68134AA2FB03239A0C13469B0013449A
:1022B0005B00BB6002E0BB68013BBB60BB68002BFE
:1022C000F9D107E07B689B6A43F020027B689A6241
:1022D0000123FB737B68002283F82420FB7B1846D4
:1022E0001437BD4680BC7047002401409C0000208C
:1022F00083DE1B4380B584B000AF78600023FB60B1
:102300000023BB607B681B689B6803F00103012B03
:1023100040D07B681B689A687B681B6842F00102AA
:102320009A601F4B1B681F4AA2FB03239B0CBB60D8
:1023300002E0BB68013BBB60BB68002BF9D1FFF733
:10234000F1FBF8601FE0FFF7EDFB0246FB68D31AD4
:10235000022B18D97B681B689B6803F00103012BD3
:1023600011D07B689B6A43F010027B689A627B689D
:10237000DB6A43F001027B68DA627B68002283F843
:102380002420012307E07B681B689B6803F001039E
:10239000012BD8D1002318461037BD4680BD00BFA1
:1023A0009C00002083DE1B4380B584B000AF7860C2
:1023B0000023FB607B681B689B6803F00103012B13
:1023C0002ED17B681B689A687B681B6822F001022B
:1023D0009A60FFF7A7FBF8601BE0FFF7A3FB02463C
:1023E000FB68D31A022B14D97B681B689B6803F027
:1023F0000103012B0DD17B689B6A43F010027B68BF
:102400009A627B68DB6A43F001027B68DA6201232F
:1024100007E07B681B689B6803F00103012BDCD09D
:10242000002318461037BD4680BD000080B485B03B
:1024300000AF78607B6803F00703FB600C4BDB6840
:10244000BB60BA684FF6FF031340BB60FB681A021B
:10245000BB68134343F0BF6343F40033BB60044ADB
:10246000BB68D36000BF1437BD4680BC704700BF57
:1024700000ED00E080B400AF044BDB681B0A03F002
:1024800007031846BD4680BC704700BF00ED00E062
:1024900080B483B000AF0346FB7197F90730002B7F
:1024A0000BDBFB7903F01F02064997F907305B0944
:1024B000012000FA02F241F8232000BF0C37BD468C
:1024C00080BC704700E100E080B483B000AF0346F9
:1024D0003960FB7197F90730002B0ADB3B68DAB2F1
:1024E0000C4997F907301201D2B20B4483F800234C
:1024F0000AE03B68DAB20849FB7903F00F03043BBA
:102500001201D2B20B441A7600BF0C37BD4680BC14
:10251000704700BF00E100E000ED00E080B489B04A
:1025200000AFF860B9607A60FB6803F00703FB61F5
:10253000FB69C3F10703042B28BF0423BB61FB69BC
:102540000433062B02D9FB69033B00E000237B61C7
:102550004FF0FF32BB6902FA03F3DA43BB681A405B
:102560007B699A404FF0FF317B6901FA03F3D9434D
:102570007B680B40134318462437BD4680BC704728
:1025800080B582B000AF78607868FFF74FFF00BF7A
:102590000837BD4680BD80B586B000AF0346B96040
:1025A0007A60FB7300237B61FFF764FF78617A68D0
:1025B000B9687869FFF7B2FF024697F90F30114604
:1025C0001846FFF781FF00BF1837BD4680BD80B5B4
:1025D00082B000AF0346FB7197F907301846FFF74A
:1025E00057FF00BF0837BD4680BD000080B48BB0E8
:1025F00000AF7860396000237B6200233B6227E1F3
:1026000001227B6A02FA03F3FB613B681B68FA69EB
:102610001340BB61BA69FB699A4240F016813B687E
:102620005B68122B34D0122B0DD8022B2BD0022B2F
:1026300004D8002B31D0012B1CD048E0032B43D011
:10264000112B1BD043E0894A934226D0874A9342FC
:1026500006D8874A934220D0864A93421DD036E05E
:10266000854A934219D0854A934216D0844A9342B0
:1026700013D02CE03B68DB683B6228E03B68DB68FA
:1026800004333B6223E03B68DB6808333B621EE0B7
:102690003B68DB680C333B6219E03B689B68002BAE
:1026A00002D104233B6212E03B689B68012B05D1F9
:1026B00008233B627B68FA691A6108E008233B62E1
:1026C0007B68FA695A6102E000233B6200BFBB6984
:1026D000FF2B01D87B6801E07B6804337B61BB6919
:1026E000FF2B02D87B6A9B0002E07B6A083B9B00C1
:1026F0003B617B691A680F213B6901FA03F3DB43F5
:102700001A40396A3B6901FA03F31A437B691A607C
:102710003B685B6803F08053002B00F09680594BB8
:102720009B69584A43F001039361564B9B6903F040
:102730000103BB60BB68544A7B6A9B08023352F8B2
:102740002330FB607B6A03F003039B000F2202FA35
:1027500003F3DB43FA681340FB607B684B4A934208
:1027600013D07B684A4A93420DD07B68494A934212
:1027700007D07B68484A934201D1032306E0042333
:1027800004E0022302E0012300E000237A6A02F061
:10279000030292009340FA681343FB603A497B6A54
:1027A0009B080233FA6841F823203B685B6803F416
:1027B0008033002B06D0394B1A683849BB69134364
:1027C0000B6006E0354B1A68BB69DB4333491340A5
:1027D0000B603B685B6803F40033002B06D02F4B83
:1027E0005A682E49BB6913434B6006E02B4B5A686D
:1027F000BB69DB43294913404B603B685B6803F4CA
:102800008013002B06D0254B9A682449BB691343DB
:102810008B6006E0214B9A68BB69DB431F4913407C
:102820008B603B685B6803F40013002B06D01B4BE6
:10283000DA681A49BB691343CB6006E0174BDA68C4
:10284000BB69DB4315491340CB607B6A01337B6274
:102850003B681A687B6A22FA03F3002B7FF4D0AE40
:1028600000BF2C37BD4680BC704700BF0000211060
:102870000000111000001210000031100000321092
:10288000000022100010024000000140000801403A
:10289000000C014000100140001401400004014000
:1028A00080B485B000AF78600B467B807B689A6807
:1028B0007B881340002B02D00123FB7301E000232F
:1028C000FB73FB7B18461437BD4680BC704780B451
:1028D00083B000AF78600B467B8013467B707B78BB
:1028E000002B03D07A887B681A6103E07B881A0486
:1028F0007B681A6100BF0C37BD4680BC7047000082
:1029000080B584B000AF78607B68002B01D10123D3
:102910001FE17B6893F83D30DBB2002B06D17B686A
:10292000002283F83C207868FEF7DCFE7B682422D6
:1029300083F83D207B681B681A687B681B6822F05F
:1029400001021A607B681B681A687B681B6842F486
:1029500000421A607B681B681A687B681B6822F457
:1029600000421A6000F0F0FFF8607B685B687B4A09
:10297000934207D8FB687A4A934294BF012300230D
:10298000DBB206E0FB68774A934294BF0123002341
:10299000DBB2002B01D00123DBE0FB68724AA2FB13
:1029A00003239B0CBB607B681B685B6823F03F01C3
:1029B0007B681B68BA680A435A607B681B681B6A9D
:1029C00023F03F017B685B68644A934202D8BB688E
:1029D000013309E0BB684FF4967202FB03F3634ACC
:1029E000A2FB03239B0901337A6812680B4313622D
:1029F0007B681B68DB6923F44F4222F0FF027B688F
:102A00005B6856498B420DD8FB68591E7B685B6832
:102A10005B00B1FBF3F30133C3F30B03042B38BFAB
:102A200004234FE07B689B68002B11D1FB68581E84
:102A30007B6859680B465B000B44B0FBF3F3013332
:102A4000C3F30B03002B0CBF01230023DBB212E006
:102A5000FB68581E7B6859680B469B000B44990025
:102A60000B44B0FBF3F30133C3F30B03002B0CBF98
:102A700001230023DBB2002B01D0012322E07B687D
:102A80009B68002B0ED1FB68581E7B6859680B466B
:102A90005B000B44B0FBF3F30133C3F30B0343F4CC
:102AA00000430FE0FB68581E7B6859680B469B008B
:102AB0000B4499000B44B0FBF3F30133C3F30B0356
:102AC00043F44043796809681343CB617B681B6812
:102AD0001B6823F0C0017B68DA697B681B6A1A43B4
:102AE0007B681B680A431A607B681B689B6823F439
:102AF000034323F0FF037A6811697A68D2681143AF
:102B00007A6812680B4393607B681B68DB6823F06C
:102B1000FF017B685A697B689B691A437B681B6865
:102B20000A43DA607B681B681A687B681B6842F09E
:102B300001021A607B6800221A647B68202283F8F5
:102B40003D207B6800221A637B68002283F83E20C8
:102B5000002318461037BD4680BD00BFA086010087
:102B60007F841E00FF083D0083DE1B43D34D6210AF
:102B700080B588B002AFF860084611461A46034691
:102B80007B810B463B811346FB80FEF7CBFF7861D0
:102B9000FB6893F83D30DBB2202B40F0D9807B6995
:102BA0000093192301226D49F86800F071F903467A
:102BB000002B01D00223CCE0FB6893F83C30012BC2
:102BC00001D10223C5E0FB68012283F83C20FB68A9
:102BD0001B681B6803F00103012B07D0FB681B680F
:102BE0001A68FB681B6842F001021A60FB681B68E8
:102BF0001A68FB681B6822F400621A60FB682122D5
:102C000083F83D20FB68402283F83E20FB680022C9
:102C10001A64FB683A6A5A62FB68BA8C5A85FB6888
:102C20005B8D9AB2FB681A85FB684D4ADA62F888B8
:102C30003A8979897B690193BB6A00930346F868F6
:102C400000F090F80346002B52D0012381E07A690E
:102C5000B96AF86800F0F2F90346002B0DD0FB6862
:102C60001B6C042B07D1FB681B681A68FB681B6888
:102C700042F400721A6001236BE0FB685B6A1A7809
:102C8000FB681B681A61FB685B6A5A1CFB685A6226
:102C9000FB681B8D013B9AB2FB681A85FB685B8D54
:102CA0009BB2013B9AB2FB685A85FB681B685B6963
:102CB00003F00403042B1BD1FB681B8D002B17D0E2
:102CC000FB685B6A1A78FB681B681A61FB685B6AC1
:102CD0005A1CFB685A62FB681B8D013B9AB2FB6869
:102CE0001A85FB685B8D9BB2013B9AB2FB685A85E3
:102CF000FB681B8D002BAAD17A69B96AF86800F0CD
:102D0000DEF90346002B0DD0FB681B6C042B07D1AA
:102D1000FB681B681A68FB681B6842F400721A6043
:102D2000012316E0FB681B681A68FB681B6842F405
:102D300000721A60FB68202283F83D20FB680022A5
:102D400083F83E20FB68002283F83C20002300E04B
:102D5000022318461837BD4680BD00BF0200100090
:102D60000000FFFF80B588B002AFF860084611464A
:102D70001A4603467B810B463B811346FB80FB686A
:102D80001B681A68FB681B6842F480721A607B6AD1
:102D900000933B6A00224FF00111F86800F078F8C8
:102DA0000346002B0DD0FB681B681B6803F480737F
:102DB000B3F5807F03D1FB684FF400721A640323DC
:102DC0005FE07B89DBB21A46FB681B6802F0FE02FB
:102DD0001A617B6A3A6A2D49F86800F0B0F8034638
:102DE000002B01D001234CE000237B61FB681B68B2
:102DF0005B697B61FB681B689B697B617B697A6AA5
:102E0000396AF86800F01AF90346002B0DD0FB6808
:102E10001B6C042B07D1FB681B681A68FB681B68D6
:102E200042F400721A6001232BE0FB88012B05D1CC
:102E30003B89DAB2FB681B681A6121E03B891B0AF7
:102E40009BB2DAB2FB681B681A617A6A396AF86861
:102E500000F0F4F80346002B0DD0FB681B6C042B2C
:102E600007D1FB681B681A68FB681B6842F4007294
:102E70001A60012305E03B89DAB2FB681B681A611E
:102E8000002318461837BD4680BD00BF0200010070
:102E900080B584B000AFF860B9603B601346FB7149
:102EA00025E03B68B3F1FF3F21D0FEF73BFE024631
:102EB000BB69D31A3A689A4202D33B68002B16D1F9
:102EC000FB6800221A63FB68202283F83D20FB6820
:102ED000002283F83E20FB681B6C43F02002FB6855
:102EE0001A64FB68002283F83C20012323E0BB68BE
:102EF0001B0CDBB2012B0DD1FB681B685B69DA434D
:102F0000BB6813409BB2002B0CBF01230023DBB234
:102F10001A460CE0FB681B689B69DA43BB681340E8
:102F20009BB2002B0CBF01230023DBB21A46FB79B6
:102F30009A42B6D0002318461037BD4680BD80B5F2
:102F400084B000AFF860B9607A603B6051E0FB6824
:102F50001B685B6903F48063B3F5806F23D1FB6862
:102F60001B681A68FB681B6842F400721A60FB68F1
:102F70001B686FF480625A61FB6800221A63FB6869
:102F8000202283F83D20FB68002283F83E20FB6866
:102F90001B6C43F00402FB681A64FB68002283F890
:102FA0003C20012346E07B68B3F1FF3F21D0FEF7D0
:102FB000B9FD02463B68D31A7A689A4202D37B680D
:102FC000002B16D1FB6800221A63FB68202283F8CD
:102FD0003D20FB68002283F83E20FB681B6C43F019
:102FE0002002FB681A64FB68002283F83C2001235E
:102FF00020E0BB681B0CDBB2012B0CD1FB681B680B
:103000005B69DA43BB6813409BB2002B14BF0123FA
:103010000023DBB20BE0FB681B689B69DA43BB68EB
:1030200013409BB2002B14BF01230023DBB2002B03
:103030008DD1002318461037BD4680BD80B584B0C1
:1030400000AFF860B9607A602DE0F86800F078F8B9
:103050000346002B01D001232DE0BB68B3F1FF3FF5
:1030600021D0FEF75FFD02467B68D31ABA689A4208
:1030700002D3BB68002B16D1FB6800221A63FB68E1
:10308000202283F83D20FB68002283F83E20FB6865
:103090001B6C43F02002FB681A64FB68002283F873
:1030A0003C20012307E0FB681B685B6903F0800399
:1030B000802BCAD1002318461037BD4680BD80B58D
:1030C00084B000AFF860B9607A602DE0F86800F075
:1030D00037F80346002B01D001232DE0BB68B3F184
:1030E000FF3F21D0FEF71EFD02467B68D31ABA6867
:1030F0009A4202D3BB68002B16D1FB6800221A63E8
:10310000FB68202283F83D20FB68002283F83E20E4
:10311000FB681B6C43F02002FB681A64FB6800220A
:1031200083F83C20012307E0FB681B685B6903F020
:103130000403042BCAD1002318461037BD4680BDB6
:1031400080B483B000AF78607B681B685B6903F470
:103150008063B3F5806F1BD17B681B686FF480625E
:103160005A617B6800221A637B68202283F83D2025
:103170007B68002283F83E207B681B6C43F00402CE
:103180007B681A647B68002283F83C20012300E0FE
:10319000002318460C37BD4680BC704780B586B00A
:1031A00000AF78607B68002B01D101236CE27B6863
:1031B0001B6803F00103002B00F08780924B5B68D3
:1031C00003F00C03042B0CD08F4B5B6803F00C0353
:1031D000082B12D18C4B5B6803F48033B3F5803F2E
:1031E0000BD1894B1B6803F40033002B6CD07B6838
:1031F0005B68002B68D1012346E27B685B68B3F50E
:10320000803F06D1804B1B687F4A43F480331360B4
:103210002EE07B685B68002B0CD17B4B1B687A4AE5
:1032200023F480331360784B1B68774A23F48023A0
:1032300013601DE07B685B68B3F5A02F0CD1724B67
:103240001B68714A43F4802313606F4B1B686E4AFE
:1032500043F4803313600BE06B4B1B686A4A23F422
:1032600080331360684B1B68674A23F48023136024
:103270007B685B68002B13D0FEF754FC386108E0D4
:10328000FEF750FC02463B69D31A642B01D9032395
:10329000FAE15D4B1B6803F40033002BF0D014E01F
:1032A000FEF740FC386108E0FEF73CFC02463B6953
:1032B000D31A642B01D90323E6E1534B1B6803F4B3
:1032C0000033002BF0D100E000BF7B681B6803F0E7
:1032D0000203002B63D04C4B5B6803F00C03002B04
:1032E0000BD0494B5B6803F00C03082B1CD1464BF9
:1032F0005B6803F48033002B16D1434B1B6803F04B
:103300000203002B05D07B681B69012B01D0012330
:10331000BAE13D4B1B6823F0F8027B685B69DB0078
:10332000394913430B603AE07B681B69002B20D0BE
:10333000364B01221A60FEF7F5FB386108E0FEF714
:10334000F1FB02463B69D31A022B01D903239BE10F
:103350002D4B1B6803F00203002BF0D02A4B1B6897
:1033600023F0F8027B685B69DB00274913430B609D
:1033700015E0264B00221A60FEF7D4FB386108E006
:10338000FEF7D0FB02463B69D31A022B01D9032377
:103390007AE11D4B1B6803F00203002BF0D17B6820
:1033A0001B6803F00803002B3AD07B689B69002B55
:1033B00019D0174B01221A60FEF7B4FB386108E000
:1033C000FEF7B0FB02463B69D31A022B01D9032357
:1033D0005AE10D4B5B6A03F00203002BF0D0012091
:1033E00000F00AFB1CE00A4B00221A60FEF79AFB71
:1033F00038610FE0FEF796FB02463B69D31A022BB9
:1034000008D9032340E100BF0010024000004242FF
:10341000800442429E4B5B6A03F00203002BE9D119
:103420007B681B6803F00403002B00F0A6800023D8
:10343000FB75974BDB6903F08053002B0DD1944B48
:10344000DB69934A43F08053D361914BDB6903F00E
:103450008053BB60BB680123FB758E4B1B6803F474
:103460008073002B18D18B4B1B688A4A43F48073FE
:103470001360FEF757FB386108E0FEF753FB024686
:103480003B69D31A642B01D90323FDE0814B1B68F0
:1034900003F48073002BF0D07B68DB68012B06D12E
:1034A0007B4B1B6A7A4A43F0010313622DE07B6871
:1034B000DB68002B0CD1764B1B6A754A23F00103A5
:1034C0001362734B1B6A724A23F0040313621CE0FD
:1034D0007B68DB68052B0CD16D4B1B6A6C4A43F093
:1034E000040313626A4B1B6A694A43F001031362C7
:1034F0000BE0674B1B6A664A23F001031362644BBF
:103500001B6A634A23F0040313627B68DB68002BA9
:1035100015D0FEF707FB38610AE0FEF703FB024611
:103520003B69D31A41F28832934201D90323ABE0BD
:10353000574B1B6A03F00203002BEED014E0FEF79A
:10354000F1FA38610AE0FEF7EDFA02463B69D31A58
:1035500041F28832934201D9032395E04C4B1B6A18
:1035600003F00203002BEED1FB7D012B05D1484B6C
:10357000DB69474A23F08053D3617B68DB69002B0A
:1035800000F08180424B5B6803F00C03082B61D094
:103590007B68DB69022B46D13F4B00221A60FEF7A5
:1035A000C1FA386108E0FEF7BDFA02463B69D31A5A
:1035B000022B01D9032367E0354B1B6803F000732E
:1035C000002BF0D17B681B6AB3F5803F08D1304BEC
:1035D0005B6823F400327B689B682D4913434B6082
:1035E0002B4B5B6823F474127B68196A7B685B6AF7
:1035F0000B43274913434B60274B01221A60FEF708
:1036000091FA386108E0FEF78DFA02463B69D31A59
:10361000022B01D9032337E01D4B1B6803F0007315
:10362000002BF0D02FE01C4B00221A60FEF77AFA34
:10363000386108E0FEF776FA02463B69D31A022B9E
:1036400001D9032320E0124B1B6803F00073002B09
:10365000F0D118E07B68DB69012B01D1012313E075
:103660000B4B5B68FB60FB6803F480327B681B6A72
:103670009A4206D1FB6803F470127B685B6A9A4237
:1036800001D0012300E0002318461837BD4680BD55
:1036900000100240007000406000424280B584B0DB
:1036A00000AF786039607B68002B01D10123D0E046
:1036B0006A4B1B6803F007033A689A4210D9674BBC
:1036C0001B6823F0070265493B6813430B60634B9B
:1036D0001B6803F007033A689A4201D00123B8E05F
:1036E0007B681B6803F00203002B20D07B681B68FB
:1036F00003F00403002B05D0594B5B68584A43F490
:10370000E06353607B681B6803F00803002B05D05F
:10371000534B5B68524A43F460535360504B5B68B1
:1037200023F0F0027B689B684D4913434B607B6834
:103730001B6803F00103002B40D07B685B68012B02
:1037400007D1474B1B6803F40033002B15D101232D
:103750007FE07B685B68022B07D1414B1B6803F05D
:103760000073002B09D1012373E03D4B1B6803F06C
:103770000203002B01D101236BE0394B5B6823F07E
:1037800003027B685B68364913434B60FEF7CAF956
:10379000F8600AE0FEF7C6F90246FB68D31A41F268
:1037A0008832934201D9032353E02D4B5B6803F029
:1037B0000C027B685B689B009A42EBD1274B1B682D
:1037C00003F007033A689A4210D2244B1B6823F097
:1037D000070222493B6813430B60204B1B6803F030
:1037E00007033A689A4201D0012332E07B681B68E4
:1037F00003F00403002B08D0194B5B6823F4E0624C
:103800007B68DB68164913434B607B681B6803F0D9
:103810000803002B09D0124B5B6823F460527B68CD
:103820001B69DB000E4913434B6000F021F8014691
:103830000B4B5B681B0903F00F030A4AD35C21FAA8
:1038400003F3094A1360094B1B681846FEF73AF860
:10385000002318461037BD4680BD00BF002002403F
:1038600000100240747F00089C000020A00000208F
:1038700090B48AB000AF2A4B3C1D0FCB84E80F00F8
:10388000284B1B883B800023FB610023BB61002386
:103890007B6200237B6100233B62234B5B68FB61FF
:1038A000FB6903F00C03042B02D0082B03D02DE09E
:1038B0001E4B3B622DE0FB699B0C03F00F0307F1ED
:1038C0002802134413F8243C7B61FB6903F4803322
:1038D000002B13D0144B5B685B0C03F0010307F162
:1038E0002802134413F8283CBB617B690F4A02FB92
:1038F00003F2BB69B2FBF3F37B6204E07B690C4A21
:1039000002FB03F37B627B6A3B6202E0074B3B6294
:1039100000BF3B6A18462837BD4690BC704700BFC1
:10392000E8710008F87100080010024000127A00E7
:1039300000093D0080B400AF024B1B681846BD462D
:1039400080BC70479C00002080B500AFFFF7F2FFFD
:103950000146054B5B681B0A03F00703034AD35C6F
:1039600021FA03F3184680BD00100240847F00084E
:1039700080B500AFFFF7DEFF0146054B5B68DB0A51
:1039800003F00703034AD35C21FA03F3184680BD12
:1039900000100240847F000880B483B000AF7860DC
:1039A00039607B680F221A60114B5B6803F00302D9
:1039B0007B685A600E4B5B6803F0F0027B689A608C
:1039C0000B4B5B6803F4E0627B68DA60084B5B6872
:1039D000DB0803F4E0627B681A61064B1B6803F0A6
:1039E00007023B681A6000BF0C37BD4680BC7047B9
:1039F000001002400020024080B485B000AF786023
:103A00000A4B1B680A4AA2FB03235B0A7A6802FB83
:103A100003F3FB6000BFFB685A1EFA60002BF9D16C
:103A200000BF1437BD4680BC704700BF9C0000201B
:103A3000D34D621080B586B000AF786000233B6143
:103A40000023FB607B681B6803F00103002B7DD023
:103A50000023FB754F4BDB6903F08053002B0DD126
:103A60004C4BDB694B4A43F08053D361494BDB69D4
:103A700003F08053BB60BB680123FB75464B1B689A
:103A800003F48073002B18D1434B1B68424A43F464
:103A900080731360FEF746F8386108E0FEF742F8DD
:103AA00002463B69D31A642B01D903236DE03A4BDC
:103AB0001B6803F48073002BF0D0364B1B6A03F4B1
:103AC0004073FB60FB68002B2ED07B685B6803F4BF
:103AD0004073FA689A4227D02E4B1B6A23F4407336
:103AE000FB602E4B01221A602C4B00221A60294ADF
:103AF000FB681362FB6803F00103002B14D0FEF790
:103B000011F838610AE0FEF70DF802463B69D31A56
:103B100041F28832934201D9032336E01D4B1B6AE0
:103B200003F00203002BEED01A4B1B6A23F4407201
:103B30007B685B68174913430B62FB7D012B05D142
:103B4000144BDB69134A23F08053D3617B681B68F5
:103B500003F00203002B08D00E4B5B6823F44042B5
:103B60007B689B680B4913434B607B681B6803F0C1
:103B70001003002B08D0074B5B6823F480027B689E
:103B8000DB68044913434B60002318461837BD46D1
:103B900080BD00BF0010024000700040400442425F
:103BA00090B58DB000AF7860554B07F10C040FCB8A
:103BB00084E80F00534B1B883B8100237B6200236A
:103BC000FB6200233B620023FB610023BB627B6836
:103BD000022B7FD0102B02D0012B48D08BE04A4B18
:103BE0005B68FB61484B1B6803F08073002B7FD040
:103BF000FB699B0C03F00F0307F13002134413F829
:103C0000243C3B62FB6903F48033002B18D03E4B0D
:103C10005B685B0C03F0010307F13002134413F8F7
:103C2000283C7B62FB6903F48033002B0DD0374ABC
:103C30007B6AB2FBF3F23B6A02FB03F3FB6204E034
:103C40003B6A334A02FB03F3FB622F4B5B6803F4CE
:103C50008003B3F5800F02D1FB6ABB6248E0FB6AC8
:103C60005B002C4AA2FB03235B08BB6240E0264BAF
:103C70001B6AFB61FB6903F44073B3F5807F08D1D5
:103C8000FB6903F00203002B03D04FF40043BB6237
:103C90001FE0FB6903F44073B3F5007F09D11A4BB1
:103CA0005B6A03F00203002B03D049F64043BB627A
:103CB0000FE0FB6903F44073B3F5407F1AD1124B58
:103CC0001B6803F40033002B14D04FF22443BB6273
:103CD00010E00FE0FFF74CFE02460B4B5B689B0BBE
:103CE00003F0030301335B00B2FBF3F3BB6202E0BA
:103CF00000BF00E000BFBB6A18463437BD4690BD28
:103D0000FC7100080C7200080010024000127A00DA
:103D100000093D00ABAAAAAA80B582B000AF7860C6
:103D20007B68002B01D1012341E07B6893F83D3093
:103D3000DBB2002B06D17B68002283F83C20786838
:103D4000FDF74CFD7B68022283F83D207B681A68F2
:103D50007B6804331946104600F064FA7B68012240
:103D600083F846207B68012283F83E207B6801228D
:103D700083F83F207B68012283F840207B68012282
:103D800083F841207B68012283F842207B6801226E
:103D900083F843207B68012283F844207B6801225A
:103DA00083F845207B68012283F83D2000231846D4
:103DB0000837BD4680BD000080B485B000AF786094
:103DC0007B6893F83D30DBB2012B01D001233AE050
:103DD0007B68022283F83D207B681B68DA687B6879
:103DE0001B6842F00102DA607B681B68184A934244
:103DF0000ED07B681B68B3F1804F09D07B681B68CD
:103E0000144A934204D07B681B68134A934211D131
:103E10007B681B689B6803F00703FB60FB68062B4D
:103E200010D07B681B681A687B681B6842F001022F
:103E30001A6007E07B681B681A687B681B6842F0A1
:103E400001021A60002318461437BD4680BC704733
:103E5000002C0140000400400008004080B582B002
:103E600000AF78607B681B681B6903F00203022BBC
:103E700022D17B681B68DB6803F00203022B1BD195
:103E80007B681B686FF002021A617B6801221A7757
:103E90007B681B689B6903F00303002B03D07868E1
:103EA00000F0A4F905E0786800F097F9786800F070
:103EB000A6F97B6800221A777B681B681B6903F0F0
:103EC0000403042B22D17B681B68DB6803F0040326
:103ED000042B1BD17B681B686FF004021A617B689E
:103EE00002221A777B681B689B6903F44073002BDE
:103EF00003D0786800F07AF905E0786800F06DF991
:103F0000786800F07CF97B6800221A777B681B6870
:103F10001B6903F00803082B22D17B681B68DB6850
:103F200003F00803082B1BD17B681B686FF00802A5
:103F30001A617B6804221A777B681B68DB6903F0CF
:103F40000303002B03D0786800F050F905E078688F
:103F500000F043F9786800F052F97B6800221A7784
:103F60007B681B681B6903F01003102B22D17B6850
:103F70001B68DB6803F01003102B1BD17B681B68E8
:103F80006FF010021A617B6808221A777B681B6841
:103F9000DB6903F44073002B03D0786800F026F946
:103FA00005E0786800F019F9786800F028F97B6876
:103FB00000221A777B681B681B6903F00103012B41
:103FC0000ED17B681B68DB6803F00103012B07D16E
:103FD0007B681B686FF001021A617868FDF70EF8C4
:103FE0007B681B681B6903F08003802B0ED17B6804
:103FF0001B68DB6803F08003802B07D17B681B689C
:104000006FF080021A61786800F06BFA7B681B68B9
:104010001B6903F04003402B0ED17B681B68DB68F3
:1040200003F04003402B07D17B681B686FF0400210
:104030001A61786800F0ECF87B681B681B6903F074
:104040002003202B0ED17B681B68DB6803F0200364
:10405000202B07D17B681B686FF020021A617868FB
:1040600000F036FA00BF0837BD4680BD80B584B089
:1040700000AF786039607B6893F83C30012B01D148
:104080000223A6E07B68012283F83C207B680222A1
:1040900083F83D207B681B689B68FB60FB6823F00E
:1040A0007703FB60FB6823F47F43FB607B681B683E
:1040B000FA689A603B681B68402B67D0402B0BD88E
:1040C000102B73D0102B02D8002B6FD078E0202B50
:1040D0006CD0302B6AD073E0702B0DD0702B04D8CD
:1040E000502B33D0602B41D06AE0B3F5805F66D0AF
:1040F000B3F5005F17D063E07B6818683B68996888
:104100003B685A683B68DB6800F065F97B681B68B0
:104110009B68FB60FB6843F07703FB607B681B6870
:10412000FA689A604CE07B6818683B6899683B685D
:104130005A683B68DB6800F04EF97B681B689A6838
:104140007B681B6842F480429A6039E07B6818689B
:104150003B6859683B68DB681A4600F0C5F87B6825
:104160001B685021184600F01CF929E07B6818688C
:104170003B6859683B68DB681A4600F0E3F87B68E7
:104180001B686021184600F00CF919E07B6818687C
:104190003B6859683B68DB681A4600F0A5F87B6805
:1041A0001B684021184600F0FCF809E07B681A689B
:1041B0003B681B681946104600F0F3F800E000BFAA
:1041C0007B68012283F83D207B68002283F83C2035
:1041D000002318461037BD4680BD80B483B000AFC1
:1041E000786000BF0C37BD4680BC704780B483B098
:1041F00000AF786000BF0C37BD4680BC704780B40C
:1042000083B000AF786000BF0C37BD4680BC7047FC
:1042100080B483B000AF786000BF0C37BD4680BC6F
:104220007047000080B485B000AF786039607B686B
:104230001B68FB607B68294A93420BD07B68B3F113
:10424000804F07D07B68264A934203D07B68254A7B
:10425000934208D1FB6823F07003FB603B685B6806
:10426000FA681343FB607B681C4A93420BD07B685F
:10427000B3F1804F07D07B68194A934203D07B6823
:10428000184A934208D1FB6823F44073FB603B68F3
:10429000DB68FA681343FB60FB6823F080023B682D
:1042A0005B691343FB607B68FA681A603B689A6835
:1042B0007B68DA623B681A687B689A627B68074AA7
:1042C000934203D13B681A697B681A637B680122B9
:1042D0005A6100BF1437BD4680BC7047002C0140B6
:1042E000000400400008004080B487B000AFF860D0
:1042F000B9607A60FB681B6A7B61FB681B6A23F00C
:104300000102FB681A62FB689B693B613B6923F011
:10431000F0033B617B681B013A6913433B617B6996
:1043200023F00A037B617A69BB6813437B61FB68F6
:104330003A699A61FB687A691A6200BF1C37BD4608
:1043400080BC704780B487B000AFF860B9607A6015
:10435000FB681B6A23F01002FB681A62FB689B690A
:104360007B61FB681B6A3B617B6923F470437B6163
:104370007B681B037A6913437B613B6923F0A003CD
:104380003B61BB681B013A6913433B61FB687A6977
:104390009A61FB683A691A6200BF1C37BD4680BC4F
:1043A000704780B485B000AF786039607B689B68E7
:1043B000FB60FB6823F07003FB603A68FB68134303
:1043C00043F00703FB607B68FA689A6000BF14370C
:1043D000BD4680BC704780B487B000AFF860B9605C
:1043E0007A603B60FB689B687B617B6923F47F4359
:1043F0007B613B681A027B681A43BB6813437A6986
:1044000013437B61FB687A699A6000BF1C37BD4625
:1044100080BC704780B485B000AF786039607B683D
:1044200093F83C30012B01D1022346E07B68012246
:1044300083F83C207B68022283F83D207B681B6860
:104440005B68FB607B681B689B68BB60FB6823F054
:104450007003FB603B681B68FA681343FB607B6872
:104460001B68FA685A607B681B68164A93420ED034
:104470007B681B68B3F1804F09D07B681B68124AC8
:10448000934204D07B681B68104A93420CD1BB68EE
:1044900023F08003BB603B685B68BA681343BB6072
:1044A0007B681B68BA689A607B68012283F83D20AC
:1044B0007B68002283F83C20002318461437BD4651
:1044C00080BC7047002C0140000400400008004000
:1044D00080B483B000AF786000BF0C37BD4680BCAD
:1044E000704780B483B000AF786000BF0C37BD4622
:1044F00080BC704780B582B000AF78607B68002BCD
:1045000001D1012347E07B6893F83D30DBB2002BFB
:1045100006D17B68002283F83C207868FDF784F997
:104520007B68242283F83D207B681B68DA687B68FF
:104530001B6822F40052DA60786800F00DF97B689D
:104540001B681A697B681B6822F490421A617B68B9
:104550001B685A697B681B6822F022025A617B68DB
:104560001B685A697B681B6842F008025A617B68C5
:104570001B68DA687B681B6842F40052DA607B686B
:1045800000221A647B68202283F83D207B68202269
:1045900083F83E20002318460837BD4680BD80B50D
:1045A0008AB002AFF860B9603B601346FB8000231D
:1045B0007B61FB6893F83D30DBB2202B7CD1BB687C
:1045C000002B02D0FB88002B01D1012375E0FB6892
:1045D00093F83C30012B01D102236EE0FB680122ED
:1045E00083F83C20FB6800221A64FB68212283F8D0
:1045F0003D20FDF797FA7861FB68FA889A84FB689A
:10460000FA88DA84FB689B68B3F5805F08D1FB68A1
:104610001B69002B04D10023FB61BB68BB6103E075
:10462000BB68FB610023BB61FB68002283F83C2070
:104630002AE03B6800937B6900228021F86800F043
:1046400040F80346002B01D0032336E0FB69002B22
:104650000BD1BB691B881A46FB681B68C2F30802B2
:104660005A60BB690233BB6107E0FB691A78FB68DB
:104670001B685A60FB690133FB61FB68DB8C9BB2F2
:10468000013B9AB2FB68DA84FB68DB8C9BB2002B9F
:10469000CFD13B6800937B6900224021F86800F08D
:1046A00010F80346002B01D0032306E0FB6820220C
:1046B00083F83D20002300E0022318462037BD4642
:1046C00080BD80B584B000AFF860B9603B60134630
:1046D000FB712CE0BB69B3F1FF3F28D0BB69002B15
:1046E00007D0FDF71FFA02463B68D31ABA699A420F
:1046F0001DD2FB681B68DA68FB681B6822F4D07265
:10470000DA60FB681B685A69FB681B6822F00102CB
:104710005A61FB68202283F83D20FB68202283F841
:104720003E20FB68002283F83C2003230FE0FB6857
:104730001B681A68BB681340BA689A420CBF012311
:104740000023DBB21A46FB799A42C3D000231846F5
:104750001037BD4680BD000080B584B000AF7860E2
:104760007B681B681B6923F440517B68DA687B68AF
:104770001B680A431A617B689A687B681B691A4345
:104780007B685B691343BB607B681B68DB6823F451
:10479000B05323F00C037A681268B9680B43D360F6
:1047A0007B681B685B6923F440717B689A697B684E
:1047B0001B680A435A617B681B682C4A934203D1E9
:1047C000FFF7D6F8F86002E0FFF7BEF8F860FA6885
:1047D00013469B0013449A001A447B685B689B0055
:1047E000B2FBF3F3224AA2FB03235B091901FA6827
:1047F00013469B0013449A001A447B685B689B0035
:10480000B2FBF3F21A4BA3FB02035B09642000FB2B
:1048100003F3D31A1B013233154AA2FB03235B09AE
:1048200003F0F0031944FA6813469B0013449A00FE
:104830001A447B685B689B00B2FBF3F20C4BA3FB52
:1048400002035B09642000FB03F3D31A1B0132331C
:10485000074AA2FB03235B0903F00F027B681B6876
:104860000A449A6000BF1037BD4680BD0038014041
:104870001F85EB5180B485B000AF0346FB80002359
:10488000FB60B7F90630842B05D0B7F90620FB682A
:1048900013440333FB60FB6818461437BD4680BCE5
:1048A000704780B500AF00F02BFF0023184680BD95
:1048B000F0B589B004AF786039607B685B69002B24
:1048C00020D07B689B69002B1CD07B685C687B6870
:1048D0001D687B681E697B68B3F908301846FFF7CE
:1048E000C9FF01467B685B697A689269029201930D
:1048F00000913B6832462946204600F01FFC0346E3
:10490000FB601CE07B685C687B681D687B681B69DA
:104910009EB27B68B3F908301846FFF7ABFF02463A
:1049200007F10C03019300923B683246294620466A
:1049300000F05DFC0346012B01D0002300E0FB6882
:1049400018461437BD46F0BD80B584B000AF78601E
:104950007B68FB60FB68002B01D0FB6800E0012353
:10496000184600F071FD002318461037BD4680BD83
:1049700080B586B002AF786039607B685B68002BD9
:1049800010D03B68012B0BD17B685A68032300933E
:10499000134600220021012000F034F9034616E0FE
:1049A000002314E03B68012B10D1032200210120D9
:1049B00000F09AF9F860FB68002B05D00023002274
:1049C0000021F86800F0ECF9FB6800E000231846CD
:1049D0001037BD4680BD80B483B000AF78607B687F
:1049E00003F108027B685A607B684FF0FF329A60DF
:1049F0007B6803F108027B68DA607B6803F10802D8
:104A00007B681A617B6800221A6000BF0C37BD46C4
:104A100080BC704780B483B000AF78607B680022B0
:104A20001A6100BF0C37BD4680BC704780B485B0AA
:104A300000AF786039607B685B68FB603B68FA6850
:104A40005A60FB689A683B689A60FB689B683A68A2
:104A50005A60FB683A689A603B687A681A617B68BA
:104A60001B685A1C7B681A6000BF1437BD4680BCA7
:104A7000704780B485B000AF786039603B681B68D0
:104A8000BB60BB68B3F1FF3F03D17B681B69FB6070
:104A90000CE07B680833FB6002E0FB685B68FB604E
:104AA000FB685B681B68BA689A42F6D2FB685A6872
:104AB0003B685A603B685B683A689A603B68FA6892
:104AC0009A60FB683A685A603B687A681A617B684A
:104AD0001B685A1C7B681A6000BF1437BD4680BC37
:104AE000704780B485B000AF78607B681B69FB605D
:104AF0007B685B687A6892689A607B689B687A6872
:104B000052685A60FB685B687A689A4203D17B6896
:104B10009A68FB685A607B6800221A61FB681B6810
:104B20005A1EFB681A60FB681B6818461437BD469E
:104B300080BC704780B584B000AF786039607B6816
:104B4000FB60FB68002B09D14FF0500383F3118801
:104B5000BFF36F8FBFF34F8FBB60FEE701F0BCFB6D
:104B6000FB681A68FB68DB6BF968096C01FB03F3EF
:104B70001A44FB685A60FB6800229A63FB681A6853
:104B8000FB689A60FB681A68FB68DB6B013BF9689D
:104B9000096C01FB03F31A44FB68DA60FB68FF222F
:104BA00083F84420FB68FF2283F845203B68002BF4
:104BB00014D1FB681B69002B1AD0FB681033184610
:104BC00000F0E0FF0346002B12D00D4B4FF0805257
:104BD0001A60BFF34F8FBFF36F8F09E0FB6810338C
:104BE0001846FFF7F8FEFB6824331846FFF7F3FE7C
:104BF00001F0A0FB012318461037BD4680BD00BF61
:104C000004ED00E080B58EB002AFF860B9607A6064
:104C10003B60FB68002B09D14FF0500383F31188F0
:104C2000BFF36F8FBFF34F8FBB62FEE73B68002B74
:104C300009D14FF0500383F31188BFF36F8FBFF397
:104C40004F8F7B62FEE77B68002B02D0BB68002B96
:104C500001D0012300E00023002B09D14FF05003C5
:104C600083F31188BFF36F8FBFF34F8F3B62FEE773
:104C70007B68002B02D1BB68002B01D1012300E02F
:104C80000023002B09D14FF0500383F31188BFF3A9
:104C90006F8FBFF34F8FFB61FEE748237B617B691A
:104CA000482B09D04FF0500383F31188BFF36F8F67
:104CB000BFF34F8FBB61FEE73B68FB62FB6A002BD3
:104CC0000DD0FB6A012283F8462097F83820FB6A52
:104CD000009313467A68B968F86800F042F8FB6AF6
:104CE00018463037BD4680BD80B58AB002AFF86047
:104CF000B9601346FB71FB68002B09D14FF05003DC
:104D000083F31188BFF36F8FBFF34F8F3B61FEE7D3
:104D1000BB68002B02D10023FB6104E0FB68BA688A
:104D200002FB03F3FB61FB694833184601F08EFB7D
:104D3000B861BB69002B0FD0BB6948337B61BB698D
:104D4000002283F84620FA79BB69009313467A69FA
:104D5000B968F86800F005F8BB6918462037BD4609
:104D600080BD80B584B000AFF860B9607A60FB7038
:104D7000BB68002B03D1BB69BA691A6002E0BB694A
:104D80007A681A60BB69FA68DA63BB69BA681A6440
:104D90000121B869FFF7CEFE00BF1037BD4680BDC8
:104DA00080B58EB000AFF860B9607A603B600023D8
:104DB0007B63FB683B633B6B002B09D14FF05003D7
:104DC00083F31188BFF36F8FBFF34F8FBB62FEE792
:104DD000BB68002B03D13B6B1B6C002B01D1012363
:104DE00000E00023002B09D14FF0500383F311881A
:104DF000BFF36F8FBFF34F8F7B62FEE73B68022BE1
:104E000003D13B6BDB6B012B01D1012300E00023BD
:104E1000002B09D14FF0500383F31188BFF36F8F3C
:104E2000BFF34F8F3B62FEE701F066F80346002BAD
:104E300002D17B68002B01D1012300E00023002B6D
:104E400009D14FF0500383F31188BFF36F8FBFF385
:104E50004F8FFB61FEE701F03FFA3B6B9A6B3B6BB8
:104E6000DB6B9A4202D33B68022B29D13A68B968BE
:104E7000386B00F08FF8F8623B6B5B6A002B10D048
:104E80003B6B2433184600F07DFE0346002B13D005
:104E90003F4B4FF080521A60BFF34F8FBFF36F8FBD
:104EA0000AE0FB6A002B07D0394B4FF080521A60A2
:104EB000BFF34F8FBFF36F8F01F03CFA012363E024
:104EC0007B68002B03D101F035FA00235CE07B6B9B
:104ED000002B06D107F11403184600F0B5FE01239C
:104EE0007B6301F027FA00F069FC01F0F5F93B6BF8
:104EF00093F844305BB2B3F1FF3F03D13B6B002228
:104F000083F844203B6B93F845305BB2B3F1FF3F2D
:104F100003D13B6B002283F8452001F00BFA3A1DC8
:104F200007F114031146184600F0A4FE0346002BB7
:104F300024D1386B00F0EAF80346002B18D03B6B05
:104F400010337A681146184600F0F8FD386B00F00F
:104F50008BF800F041FC0346002B7FF47CAF0C4B38
:104F60004FF080521A60BFF34F8FBFF36F8F72E71D
:104F7000386B00F079F800F02FFC6CE7386B00F02C
:104F800073F800F029FC002318463837BD4680BD71
:104F900004ED00E080B586B000AFF860B9607A60DB
:104FA00000237B61FB689B6B3B61FB681B6C002BE8
:104FB0000DD1FB681B68002B4DD1FB685B68184660
:104FC00000F0B8FF7861FB6800225A6043E07B681C
:104FD000002B19D1FB689868FB681B6C1A46B968EE
:104FE00001F032FCFB689A68FB681B6C1A44FB6892
:104FF0009A60FB689A68FB685B689A422BD3FB68EF
:105000001A68FB689A6026E0FB68D868FB681B6C2E
:105010001A46B96801F018FCFB68DA68FB681B6C7B
:105020005B421A44FB68DA60FB68DA68FB681B685D
:105030009A4207D2FB685A68FB681B6C5B421A44B1
:10504000FB68DA607B68022B05D13B69002B02D03C
:105050003B69013B3B613B695A1CFB689A637B6976
:1050600018461837BD4680BD80B584B000AF786063
:1050700001F032F97B6893F84530FB7311E07B68EF
:105080005B6A002B12D07B682433184600F07AFD4F
:105090000346002B01D000F04DFEFB7B013BDBB251
:1050A000FB7397F90F30002BE9DC00E000BF7B6851
:1050B000FF2283F8452001F03DF901F00DF97B68EE
:1050C00093F84430BB7311E07B681B69002B12D04E
:1050D0007B681033184600F055FD0346002B01D0C5
:1050E00000F028FEBB7B013BDBB2BB7397F90E30AF
:1050F000002BE9DC00E000BF7B68FF2283F844203E
:1051000001F018F900BF1037BD4680BD80B584B0EE
:1051100000AF786001F0E0F87B689A6B7B68DB6B2E
:105120009A4202D10123FB6001E00023FB6001F001
:1051300001F9FB6818461037BD4680BD80B58EB0BA
:1051400004AFF860B9607A603B607B6B002B09D1DB
:105150004FF0500383F31188BFF36F8FBFF34F8F6E
:105160003B62FEE7BB6B002B09D14FF0500383F38A
:105170001188BFF36F8FBFF34F8FFB61FEE754239E
:105180003B613B69542B09D04FF0500383F31188E6
:10519000BFF36F8FBFF34F8FBB61FEE7BB6B002B7D
:1051A0001ED07B6B002B1BD0BB6B7B627B6A7A6B48
:1051B0001A637B6A022283F85120002303937B6ADF
:1051C000029307F1140301933B6B00933B687A68E9
:1051D000B968F86800F050F8786A00F0CBF801E0A0
:1051E00000237B617B6918462837BD4680BD80B5AA
:1051F0008CB004AFF860B9603B601346FB80FB885D
:105200009B00184601F022F978617B69002B0ED0D3
:10521000542001F01BF9F861FB69002B03D0FB69F6
:105220007A691A6305E0786901F0D2F901E0002398
:10523000FB61FB69002B17D0FB69002283F851202A
:10524000FA8800230393FB690293FB6A0193BB6A0C
:1052500000933B68B968F86800F00EF8F86900F050
:1052600089F80123BB6102E04FF0FF33BB61BB69EA
:1052700018462037BD4680BD80B588B000AFF860C5
:10528000B9607A603B603B6B1A6B7B6803F18043CB
:10529000013B9B001344BB61BB6923F00703BB6167
:1052A000BB6903F00703002B09D04FF0500383F3D1
:1052B0001188BFF36F8FBFF34F8F7B61FEE7002331
:1052C000FB6112E0BA68FB69134419783A6BFB6919
:1052D000134434330A461A70BA68FB6913441B78C6
:1052E000002B06D0FB690133FB61FB690F2BE9D969
:1052F00000E000BF3B6B002283F84320BB6A062B13
:1053000001D90623BB623B6BBA6ADA623B6BBA6AAD
:105310005A643B6B00229A643B6B04331846FFF7D8
:1053200079FB3B6B18331846FFF774FB3B6B3A6B0A
:105330001A61BB6AC3F107023B6B9A613B6B3A6B24
:105340005A623B6B0022DA643B6B002283F85020E8
:105350003A68F968B86900F0D7FE02463B6B1A60FC
:10536000FB6A002B02D0FB6A3A6B1A6000BF203741
:10537000BD4680BD80B582B000AF786000F0ACFF64
:105380002A4B1B680133294A1360294B1B68002BE9
:1053900009D1274A7B681360244B1B68012B10D16D
:1053A00000F0ECFC0DE0234B1B68002B09D1204BD7
:1053B0001B68DA6A7B68DB6A9A4202D81C4A7B68FF
:1053C00013601D4B1B6801331B4A13607B68DB6A4B
:1053D00001229A40194B1B681343184A13607B68DB
:1053E000DA6A13469B0013449B00154A1A447B68F3
:1053F000043319461046FFF719FB00F09BFF0D4BD5
:105400001B68002B0ED00A4B1B68DA6A7B68DB6ACC
:105410009A4207D20B4B4FF080521A60BFF34F8F66
:10542000BFF36F8F00BF0837BD4680BD90080020D6
:10543000900700209C080020AC080020980800205D
:105440009407002004ED00E080B584B000AF7860E0
:105450000023FB607B68002B16D0134B1B68002BCE
:1054600009D04FF0500383F31188BFF36F8FBFF360
:105470004F8FBB60FEE700F0A1F90021786800F0D3
:10548000DDFD00F0A9F9F860FB68002B07D1074BA0
:105490004FF080521A60BFF34F8FBFF36F8F00BF82
:1054A0001037BD4680BD00BFB808002004ED00E005
:1054B00080B584B000AF786000F00EFF7B68002BF1
:1054C00002D13C4B1B6800E07B68FB60FB68043347
:1054D0001846FFF706FB0346002B15D1FB68DA6A76
:1054E000354913469B0013449B000B441B68002B5B
:1054F0000AD1FB68DB6A012202FA03F3DA432F4B7D
:105500001B6813402D4A1360FB689B6A002B04D074
:10551000FB6818331846FFF7E4FAFB6804331946B2
:105520002748FFF783FAFB6893F85030DBB2012B72
:1055300003D1FB68002283F8502000F0FBFE214BD2
:105540001B68002B05D000F0C7FE00F0B1FC00F096
:10555000F1FE184B1B68FA689A4226D1194B1B685A
:10556000002B16D0184B1B68002B09D04FF05003AE
:1055700083F31188BFF36F8FBFF34F8FBB60FEE7DC
:10558000124B4FF080521A60BFF34F8FBFF36F8FF3
:105590000BE00B4B1A680E4B1B689A4203D1054B6C
:1055A00000221A6001E000F06FFA00BF1037BD461C
:1055B00080BD00BF900700209407002098080020BD
:1055C0007C0800209C080020B808002004ED00E0C2
:1055D0009008002080B487B000AF786000237B6122
:1055E0007B683B617B68002B09D14FF0500383F34C
:1055F0001188BFF36F8FBFF34F8FFB60FEE73B69EE
:105600005B690F4A934201D1012300E00023002B84
:105610000FD03B699B6A0B4A93420AD03B699B6A55
:10562000002B01D1012300E00023002B01D0012336
:105630007B617B6918461C37BD4680BC704700BF44
:105640007C0800205008002080B584B000AF78604E
:105650007B68FB607B68002B09D14FF0500383F31C
:105660001188BFF36F8FBFF34F8FBB60FEE7FB68FE
:10567000002B39D01E4B1B68FA689A4234D000F0D8
:105680002BFEF868FFF7A6FF0346002B2AD0FB6825
:1056900004331846FFF725FAFB68DB6A01229A40BB
:1056A000144B1B681343134A1360FB68DA6A1346F2
:1056B0009B0013449B00104A1A44FB6804331946AC
:1056C0001046FFF7B3F9FB68DA6A094B1B68DB6A1F
:1056D0009A4207D3094B4FF080521A60BFF34F8FA5
:1056E000BFF36F8F00F026FE00BF1037BD4680BDB0
:1056F00090070020980800209407002004ED00E0A7
:1057000080B58AB004AF0023BB6000237B603A46BB
:10571000391D07F108031846FAF776FD39687B68EA
:10572000BA68029201930023009300230A461D49A0
:105730001D48FFF703FD02461C4B1A601B4B1B68FC
:10574000002B02D001237B6101E000237B617B6998
:10575000012B15D14FF0500383F31188BFF36F8FE6
:10576000BFF34F8F3B61124B4FF0FF321A60114B6A
:1057700001221A60104B00221A6000F03DFD0DE07E
:105780007B69B3F1FF3F09D14FF0500383F31188D8
:10579000BFF36F8FBFF34F8FFB60FEE700BF18377B
:1057A000BD4680BD107200084D5D0008B4080020A1
:1057B000B00800209C0800209408002080B400AFAE
:1057C000044B1B680133034A136000BFBD4680BC15
:1057D000704700BFB808002080B584B000AF002338
:1057E000FB600023BB60414B1B68002B09D14FF0CD
:1057F000500383F31188BFF36F8FBFF34F8F3B606C
:10580000FEE700F069FD394B1B68013B374A136026
:10581000364B1B68002B61D1354B1B68002B5DD0CC
:105820002EE0344BDB68DB68FB60FB6818331846FE
:10583000FFF757F9FB6804331846FFF752F9FB6886
:10584000DB6A01229A402C4B1B6813432A4A1360DF
:10585000FB68DA6A13469B0013449B00274A1A44EC
:10586000FB68043319461046FFF7E0F8FB68DA6A74
:10587000234B1B68DB6A9A4202D3224B01221A6037
:105880001C4B1B68002BCCD1FB68002B01D000F017
:105890000FFB1D4B1B687B607B68002B10D000F05A
:1058A00037F80346002B02D0164B01221A607B68A2
:1058B000013B7B607B68002BF1D1134B00221A6007
:1058C000104B1B68002B09D00123BB600F4B4FF01E
:1058D00080521A60BFF34F8FBFF36F8F00F02AFD25
:1058E000BB6818461037BD4680BD00BFB808002011
:1058F00090080020500800209808002094070020FD
:1059000090070020A4080020A008002004ED00E07B
:1059100080B586B000AF00237B61504B1B68002B25
:1059200040F08C804E4B1B6801333B614C4A3B6915
:1059300013603B69002B1FD14A4B1B681B68002B6F
:1059400009D04FF0500383F31188BFF36F8FBFF37B
:105950004F8F3B60FEE7434B1B68FB60424B1B686D
:10596000404A1360404AFB681360404B1B68013398
:105970003E4A136000F09CFA3D4B1B683A699A421C
:105980004DD3384B1B681B68002B01D1012300E06D
:105990000023002B04D0364B4FF0FF321A603EE05C
:1059A000304B1B68DB68DB68BB60BB685B687B6097
:1059B0003A697B689A4203D22D4A7B6813602EE0D5
:1059C000BB6804331846FFF78CF8BB689B6A002B52
:1059D00004D0BB6818331846FFF783F8BB68DB6A4E
:1059E00001229A40234B1B681343224A1360BB6871
:1059F000DA6A13469B0013449B001F4A1A44BB6893
:105A0000043319461046FFF711F8BB68DA6A1B4BDE
:105A10001B68DB6A9A42B4D301237B61B1E7174B61
:105A20001B68DA6A144913469B0013449B000B441D
:105A30001B68012B07D901237B6104E0104B1B6815
:105A400001330F4A13600F4B1B68002B01D0012359
:105A50007B617B6918461837BD4680BDB8080020B9
:105A600094080020480800204C080020A8080020C6
:105A7000B00800209808002094070020900700201C
:105A8000A0080020A408002080B487B000AF264BF7
:105A90001B68002B03D0254B01221A603EE0234BEC
:105AA00000221A60224B1B68FB60FB68B3FA83F389
:105AB000FB72FB7AC3F11F037B611E497A691346AF
:105AC0009B0013449B000B441B68002B09D14FF033
:105AD000500383F31188BFF36F8FBFF34F8F7B6049
